{
  "contractName": "TweetherICO",
  "abi": [
    {
      "constant": true,
      "inputs": [],
      "name": "RATE",
      "outputs": [
        {
          "name": "",
          "type": "uint256"
        }
      ],
      "payable": false,
      "stateMutability": "view",
      "type": "function"
    },
    {
      "inputs": [
        {
          "name": "_tokenAddr",
          "type": "address"
        }
      ],
      "payable": false,
      "stateMutability": "nonpayable",
      "type": "constructor"
    },
    {
      "payable": true,
      "stateMutability": "payable",
      "type": "fallback"
    }
  ],
  "bytecode": "0x60806040526103e860015534801561001657600080fd5b506040516102923803806102928339818101604052602081101561003957600080fd5b8101908080519060200190929190505050806000806101000a81548173ffffffffffffffffffffffffffffffffffffffff021916908373ffffffffffffffffffffffffffffffffffffffff160217905550506101f88061009a6000396000f3fe60806040526004361061001e5760003560e01c8063664e970414610112575b60006100293461013d565b90506000809054906101000a900473ffffffffffffffffffffffffffffffffffffffff1673ffffffffffffffffffffffffffffffffffffffff1663a9059cbb33836040518363ffffffff1660e01b8152600401808373ffffffffffffffffffffffffffffffffffffffff1673ffffffffffffffffffffffffffffffffffffffff16815260200182815260200192505050602060405180830381600087803b1580156100d357600080fd5b505af11580156100e7573d6000803e3d6000fd5b505050506040513d60208110156100fd57600080fd5b81019080805190602001909291905050505050005b34801561011e57600080fd5b50610127610175565b6040518082815260200191505060405180910390f35b600061016e600154610160670de0b6b3a76400008561017b90919063ffffffff16565b61018f90919063ffffffff16565b9050919050565b60015481565b600081838161018657fe5b04905092915050565b6000808314156101a257600090506101bd565b8183029050818382816101b157fe5b04146101b957fe5b8090505b9291505056fea265627a7a72305820be4defcae1ca356c0b81d16f0f806f39c1226a300b3364fd699dad16ca948c3a64736f6c634300050a0032",
  "source": "pragma solidity ^0.5.10;\n\nimport \"zeppelin-solidity/contracts/math/SafeMath.sol\";\nimport \"./TweetherToken.sol\";\n\ncontract TweetherICO {\n    using SafeMath for uint256;\n\n    TweetherToken token;\n\n    uint256 public RATE = 1000; // 1 ETH = 1000 TWE\n\n    constructor(address _tokenAddr) public {\n        token = TweetherToken(_tokenAddr);\n    }\n\n    // convert wei to ETH then convert to TWE\n    function _getTokenAmount(uint256 _weiAmount) internal view returns (uint256) {\n        return _weiAmount.div(10 ** 18).mul(RATE);\n    }\n\n    // fallback function (a function without name)\n    function () external payable {\n        uint256 _amount = _getTokenAmount(msg.value);\n\n        token.transfer(msg.sender, _amount);\n    }\n}",
  "sourcePath": "/Users/sg99019ml/Abby/tweether/contracts/token/TweetherICO.sol",
  "compiler": {
    "name": "solc",
    "version": "0.5.10+commit.5a6ea5b1.Emscripten.clang"
  },
  "schemaVersion": "3.4.3",
  "updatedAt": "2021-09-08T17:46:57.148Z",
  "networkType": "ethereum",
  "devdoc": {
    "methods": {}
  },
  "userdoc": {
    "methods": {}
  }
}