{
  "contractName": "UserController",
  "abi": [
    {
      "constant": false,
      "inputs": [
        {
          "name": "_managerAddr",
          "type": "address"
        }
      ],
      "name": "setManagerAddr",
      "outputs": [],
      "payable": false,
      "stateMutability": "nonpayable",
      "type": "function"
    },
    {
      "constant": true,
      "inputs": [],
      "name": "ownerAddr",
      "outputs": [
        {
          "name": "",
          "type": "address"
        }
      ],
      "payable": false,
      "stateMutability": "view",
      "type": "function"
    },
    {
      "constant": false,
      "inputs": [
        {
          "name": "_newOwner",
          "type": "address"
        }
      ],
      "name": "transferOwnership",
      "outputs": [],
      "payable": false,
      "stateMutability": "nonpayable",
      "type": "function"
    },
    {
      "constant": false,
      "inputs": [
        {
          "name": "_username",
          "type": "bytes32"
        },
        {
          "name": "_firstName",
          "type": "bytes32"
        },
        {
          "name": "_lastName",
          "type": "bytes32"
        },
        {
          "name": "_bio",
          "type": "string"
        },
        {
          "name": "_gravatarEmail",
          "type": "string"
        }
      ],
      "name": "createUser",
      "outputs": [
        {
          "name": "",
          "type": "uint256"
        }
      ],
      "payable": false,
      "stateMutability": "nonpayable",
      "type": "function"
    }
  ],
  "bytecode": "0x6080604052336000806101000a81548173ffffffffffffffffffffffffffffffffffffffff021916908373ffffffffffffffffffffffffffffffffffffffff160217905550610878806100536000396000f3fe608060405234801561001057600080fd5b506004361061004c5760003560e01c80637978b231146100515780639c675eaa14610095578063f2fde38b146100df578063f901175b14610123575b600080fd5b6100936004803603602081101561006757600080fd5b81019080803573ffffffffffffffffffffffffffffffffffffffff1690602001909291905050506102a7565b005b61009d610344565b604051808273ffffffffffffffffffffffffffffffffffffffff1673ffffffffffffffffffffffffffffffffffffffff16815260200191505060405180910390f35b610121600480360360208110156100f557600080fd5b81019080803573ffffffffffffffffffffffffffffffffffffffff169060200190929190505050610369565b005b610291600480360360a081101561013957600080fd5b810190808035906020019092919080359060200190929190803590602001909291908035906020019064010000000081111561017457600080fd5b82018360208201111561018657600080fd5b803590602001918460018302840111640100000000831117156101a857600080fd5b91908080601f016020809104026020016040519081016040528093929190818152602001838380828437600081840152601f19601f8201169050808301925050505050505091929192908035906020019064010000000081111561020b57600080fd5b82018360208201111561021d57600080fd5b8035906020019184600183028401116401000000008311171561023f57600080fd5b91908080601f016020809104026020016040519081016040528093929190818152602001838380828437600081840152601f19601f82011690508083019250505050505050919291929050505061043f565b6040518082815260200191505060405180910390f35b6000809054906101000a900473ffffffffffffffffffffffffffffffffffffffff1673ffffffffffffffffffffffffffffffffffffffff163373ffffffffffffffffffffffffffffffffffffffff161461030057600080fd5b80600160006101000a81548173ffffffffffffffffffffffffffffffffffffffff021916908373ffffffffffffffffffffffffffffffffffffffff16021790555050565b6000809054906101000a900473ffffffffffffffffffffffffffffffffffffffff1681565b6000809054906101000a900473ffffffffffffffffffffffffffffffffffffffff1673ffffffffffffffffffffffffffffffffffffffff163373ffffffffffffffffffffffffffffffffffffffff16146103c257600080fd5b600073ffffffffffffffffffffffffffffffffffffffff168173ffffffffffffffffffffffffffffffffffffffff1614156103fc57600080fd5b806000806101000a81548173ffffffffffffffffffffffffffffffffffffffff021916908373ffffffffffffffffffffffffffffffffffffffff16021790555050565b600080600160009054906101000a900473ffffffffffffffffffffffffffffffffffffffff16905060008173ffffffffffffffffffffffffffffffffffffffff1663bf40fac16040518163ffffffff1660e01b815260040180806020018281038252600b8152602001807f5573657253746f7261676500000000000000000000000000000000000000000081525060200191505060206040518083038186803b1580156104eb57600080fd5b505afa1580156104ff573d6000803e3d6000fd5b505050506040513d602081101561051557600080fd5b81019080805190602001909291905050509050600081905060008173ffffffffffffffffffffffffffffffffffffffff166382d38954336040518263ffffffff1660e01b8152600401808273ffffffffffffffffffffffffffffffffffffffff1673ffffffffffffffffffffffffffffffffffffffff16815260200191505060206040518083038186803b1580156105ac57600080fd5b505afa1580156105c0573d6000803e3d6000fd5b505050506040513d60208110156105d657600080fd5b8101908080519060200190929190505050146105f157600080fd5b60008173ffffffffffffffffffffffffffffffffffffffff1663ec4d88d78b6040518263ffffffff1660e01b81526004018082815260200191505060206040518083038186803b15801561064457600080fd5b505afa158015610658573d6000803e3d6000fd5b505050506040513d602081101561066e57600080fd5b81019080805190602001909291905050501461068957600080fd5b8073ffffffffffffffffffffffffffffffffffffffff1663d399e63d338b8b8b8b8b6040518763ffffffff1660e01b8152600401808773ffffffffffffffffffffffffffffffffffffffff1673ffffffffffffffffffffffffffffffffffffffff1681526020018681526020018581526020018481526020018060200180602001838103835285818151815260200191508051906020019080838360005b83811015610742578082015181840152602081019050610727565b50505050905090810190601f16801561076f5780820380516001836020036101000a031916815260200191505b50838103825284818151815260200191508051906020019080838360005b838110156107a857808201518184015260208101905061078d565b50505050905090810190601f1680156107d55780820380516001836020036101000a031916815260200191505b5098505050505050505050602060405180830381600087803b1580156107fa57600080fd5b505af115801561080e573d6000803e3d6000fd5b505050506040513d602081101561082457600080fd5b810190808051906020019092919050505093505050509594505050505056fea265627a7a72305820437d23cf9f01917336d58f53b18aee78ed1912dbe53026aa525362cead20c1c164736f6c634300050a0032",
  "source": "pragma solidity ^0.5.10;\n\nimport '../helpers/BaseController.sol';\nimport '../ContractManager.sol';\nimport './UserStorage.sol';\n\ncontract UserController is BaseController {\n\n    function createUser(\n        bytes32 _username,\n        bytes32 _firstName,\n        bytes32 _lastName,\n        string memory _bio,\n        string memory _gravatarEmail\n    ) public returns(uint) {\n        ContractManager _manager = ContractManager(managerAddr);\n\n        address _userStorageAddr = _manager.getAddress(\"UserStorage\");\n        UserStorage _userStorage = UserStorage(_userStorageAddr);\n\n        require(_userStorage.addresses(msg.sender) == 0);\n        require(_userStorage.usernames(_username) == 0);\n\n        return _userStorage.createUser(\n            msg.sender,\n            _username,\n            _firstName,\n            _lastName,\n            _bio,\n            _gravatarEmail\n        );\n    }\n}",
  "sourcePath": "/Users/sg99019ml/Abby/tweether/contracts/users/UserController.sol",
  "compiler": {
    "name": "solc",
    "version": "0.5.10+commit.5a6ea5b1.Emscripten.clang"
  },
  "schemaVersion": "3.4.3",
  "updatedAt": "2021-09-08T17:46:56.251Z",
  "networkType": "ethereum",
  "devdoc": {
    "methods": {}
  },
  "userdoc": {
    "methods": {}
  }
}